{
    "_format": "hh-sol-artifact-1",
    "contractName": "LandRegistry",
    "sourceName": "contracts/LandRegistry.sol",
    "abi": [
        {
            "anonymous": false,
            "inputs": [
                {
                    "indexed": true,
                    "internalType": "string",
                    "name": "landId",
                    "type": "string"
                },
                {
                    "indexed": true,
                    "internalType": "address",
                    "name": "owner",
                    "type": "address"
                },
                {
                    "indexed": true,
                    "internalType": "address",
                    "name": "admin",
                    "type": "address"
                },
                {
                    "indexed": false,
                    "internalType": "string",
                    "name": "ownerName",
                    "type": "string"
                },
                {
                    "indexed": false,
                    "internalType": "string",
                    "name": "ownerEmail",
                    "type": "string"
                },
                {
                    "indexed": false,
                    "internalType": "uint256",
                    "name": "area",
                    "type": "uint256"
                },
                {
                    "indexed": false,
                    "internalType": "string",
                    "name": "locationHash",
                    "type": "string"
                },
                {
                    "indexed": false,
                    "internalType": "uint256",
                    "name": "valuation",
                    "type": "uint256"
                },
                {
                    "indexed": false,
                    "internalType": "uint256",
                    "name": "registeredAt",
                    "type": "uint256"
                }
            ],
            "name": "LandRegistered",
            "type": "event"
        },
        {
            "inputs": [
                {
                    "internalType": "string",
                    "name": "landId",
                    "type": "string"
                }
            ],
            "name": "getLand",
            "outputs": [
                {
                    "components": [
                        {
                            "internalType": "address",
                            "name": "admin",
                            "type": "address"
                        },
                        {
                            "internalType": "address",
                            "name": "owner",
                            "type": "address"
                        },
                        {
                            "internalType": "string",
                            "name": "ownerName",
                            "type": "string"
                        },
                        {
                            "internalType": "string",
                            "name": "ownerEmail",
                            "type": "string"
                        },
                        {
                            "internalType": "uint256",
                            "name": "area",
                            "type": "uint256"
                        },
                        {
                            "internalType": "string",
                            "name": "locationHash",
                            "type": "string"
                        },
                        {
                            "internalType": "uint256",
                            "name": "valuation",
                            "type": "uint256"
                        },
                        {
                            "internalType": "uint256",
                            "name": "registeredAt",
                            "type": "uint256"
                        }
                    ],
                    "internalType": "struct LandRegistry.Land",
                    "name": "",
                    "type": "tuple"
                }
            ],
            "stateMutability": "view",
            "type": "function"
        },
        {
            "inputs": [
                {
                    "internalType": "string",
                    "name": "",
                    "type": "string"
                }
            ],
            "name": "lands",
            "outputs": [
                {
                    "internalType": "address",
                    "name": "admin",
                    "type": "address"
                },
                {
                    "internalType": "address",
                    "name": "owner",
                    "type": "address"
                },
                {
                    "internalType": "string",
                    "name": "ownerName",
                    "type": "string"
                },
                {
                    "internalType": "string",
                    "name": "ownerEmail",
                    "type": "string"
                },
                {
                    "internalType": "uint256",
                    "name": "area",
                    "type": "uint256"
                },
                {
                    "internalType": "string",
                    "name": "locationHash",
                    "type": "string"
                },
                {
                    "internalType": "uint256",
                    "name": "valuation",
                    "type": "uint256"
                },
                {
                    "internalType": "uint256",
                    "name": "registeredAt",
                    "type": "uint256"
                }
            ],
            "stateMutability": "view",
            "type": "function"
        },
        {
            "inputs": [
                {
                    "internalType": "string",
                    "name": "landId",
                    "type": "string"
                },
                {
                    "internalType": "address",
                    "name": "owner",
                    "type": "address"
                },
                {
                    "internalType": "string",
                    "name": "ownerName",
                    "type": "string"
                },
                {
                    "internalType": "string",
                    "name": "ownerEmail",
                    "type": "string"
                },
                {
                    "internalType": "uint256",
                    "name": "area",
                    "type": "uint256"
                },
                {
                    "internalType": "string",
                    "name": "locationHash",
                    "type": "string"
                },
                {
                    "internalType": "uint256",
                    "name": "valuation",
                    "type": "uint256"
                }
            ],
            "name": "registerLand",
            "outputs": [],
            "stateMutability": "payable",
            "type": "function"
        }
    ],
    "bytecode": "0x6080604052348015600f57600080fd5b506113c88061001f6000396000f3fe6080604052600436106100345760003560e01c80636c844a7b14610039578063b1c8ad0d14610076578063bf2e6231146100ba575b600080fd5b34801561004557600080fd5b50610060600480360381019061005b9190610a86565b6100d6565b60405161006d9190610c66565b60405180910390f35b34801561008257600080fd5b5061009d60048036038101906100989190610a86565b61038f565b6040516100b1989796959493929190610cf0565b60405180910390f35b6100d460048036038101906100cf9190610ddb565b6105c5565b005b6100de6108bb565b6000826040516100ee9190610f29565b9081526020016040518091039020604051806101000160405290816000820160009054906101000a900473ffffffffffffffffffffffffffffffffffffffff1673ffffffffffffffffffffffffffffffffffffffff1673ffffffffffffffffffffffffffffffffffffffff1681526020016001820160009054906101000a900473ffffffffffffffffffffffffffffffffffffffff1673ffffffffffffffffffffffffffffffffffffffff1673ffffffffffffffffffffffffffffffffffffffff1681526020016002820180546101c490610f6f565b80601f01602080910402602001604051908101604052809291908181526020018280546101f090610f6f565b801561023d5780601f106102125761010080835404028352916020019161023d565b820191906000526020600020905b81548152906001019060200180831161022057829003601f168201915b5050505050815260200160038201805461025690610f6f565b80601f016020809104026020016040519081016040528092919081815260200182805461028290610f6f565b80156102cf5780601f106102a4576101008083540402835291602001916102cf565b820191906000526020600020905b8154815290600101906020018083116102b257829003601f168201915b50505050508152602001600482015481526020016005820180546102f290610f6f565b80601f016020809104026020016040519081016040528092919081815260200182805461031e90610f6f565b801561036b5780601f106103405761010080835404028352916020019161036b565b820191906000526020600020905b81548152906001019060200180831161034e57829003601f168201915b50505050508152602001600682015481526020016007820154815250509050919050565b6000818051602081018201805184825260208301602085012081835280955050505050506000915090508060000160009054906101000a900473ffffffffffffffffffffffffffffffffffffffff16908060010160009054906101000a900473ffffffffffffffffffffffffffffffffffffffff169080600201805461041490610f6f565b80601f016020809104026020016040519081016040528092919081815260200182805461044090610f6f565b801561048d5780601f106104625761010080835404028352916020019161048d565b820191906000526020600020905b81548152906001019060200180831161047057829003601f168201915b5050505050908060030180546104a290610f6f565b80601f01602080910402602001604051908101604052809291908181526020018280546104ce90610f6f565b801561051b5780601f106104f05761010080835404028352916020019161051b565b820191906000526020600020905b8154815290600101906020018083116104fe57829003601f168201915b50505050509080600401549080600501805461053690610f6f565b80601f016020809104026020016040519081016040528092919081815260200182805461056290610f6f565b80156105af5780601f10610584576101008083540402835291602001916105af565b820191906000526020600020905b81548152906001019060200180831161059257829003601f168201915b5050505050908060060154908060070154905088565b600073ffffffffffffffffffffffffffffffffffffffff166000886040516105ed9190610f29565b908152602001604051809103902060010160009054906101000a900473ffffffffffffffffffffffffffffffffffffffff1673ffffffffffffffffffffffffffffffffffffffff1614610675576040517f08c379a000000000000000000000000000000000000000000000000000000000815260040161066c90610fec565b60405180910390fd5b600034116106b8576040517f08c379a00000000000000000000000000000000000000000000000000000000081526004016106af9061107e565b60405180910390fd5b6040518061010001604052803373ffffffffffffffffffffffffffffffffffffffff1681526020018773ffffffffffffffffffffffffffffffffffffffff1681526020018681526020018581526020018481526020018381526020018281526020014281525060008860405161072e9190610f29565b908152602001604051809103902060008201518160000160006101000a81548173ffffffffffffffffffffffffffffffffffffffff021916908373ffffffffffffffffffffffffffffffffffffffff16021790555060208201518160010160006101000a81548173ffffffffffffffffffffffffffffffffffffffff021916908373ffffffffffffffffffffffffffffffffffffffff16021790555060408201518160020190816107df919061124a565b5060608201518160030190816107f5919061124a565b506080820151816004015560a0820151816005019081610815919061124a565b5060c0820151816006015560e082015181600701559050503373ffffffffffffffffffffffffffffffffffffffff168673ffffffffffffffffffffffffffffffffffffffff16886040516108699190610f29565b60405180910390207fb61d3785bc59c04d963e512e5d894d548340513aa4bf35d41edf25ef56dee5bd8888888888426040516108aa9695949392919061131c565b60405180910390a450505050505050565b604051806101000160405280600073ffffffffffffffffffffffffffffffffffffffff168152602001600073ffffffffffffffffffffffffffffffffffffffff1681526020016060815260200160608152602001600081526020016060815260200160008152602001600081525090565b6000604051905090565b600080fd5b600080fd5b600080fd5b600080fd5b6000601f19601f8301169050919050565b7f4e487b7100000000000000000000000000000000000000000000000000000000600052604160045260246000fd5b6109938261094a565b810181811067ffffffffffffffff821117156109b2576109b161095b565b5b80604052505050565b60006109c561092c565b90506109d1828261098a565b919050565b600067ffffffffffffffff8211156109f1576109f061095b565b5b6109fa8261094a565b9050602081019050919050565b82818337600083830152505050565b6000610a29610a24846109d6565b6109bb565b905082815260208101848484011115610a4557610a44610945565b5b610a50848285610a07565b509392505050565b600082601f830112610a6d57610a6c610940565b5b8135610a7d848260208601610a16565b91505092915050565b600060208284031215610a9c57610a9b610936565b5b600082013567ffffffffffffffff811115610aba57610ab961093b565b5b610ac684828501610a58565b91505092915050565b600073ffffffffffffffffffffffffffffffffffffffff82169050919050565b6000610afa82610acf565b9050919050565b610b0a81610aef565b82525050565b600081519050919050565b600082825260208201905092915050565b60005b83811015610b4a578082015181840152602081019050610b2f565b60008484015250505050565b6000610b6182610b10565b610b6b8185610b1b565b9350610b7b818560208601610b2c565b610b848161094a565b840191505092915050565b6000819050919050565b610ba281610b8f565b82525050565b600061010083016000830151610bc16000860182610b01565b506020830151610bd46020860182610b01565b5060408301518482036040860152610bec8282610b56565b91505060608301518482036060860152610c068282610b56565b9150506080830151610c1b6080860182610b99565b5060a083015184820360a0860152610c338282610b56565b91505060c0830151610c4860c0860182610b99565b5060e0830151610c5b60e0860182610b99565b508091505092915050565b60006020820190508181036000830152610c808184610ba8565b905092915050565b610c9181610aef565b82525050565b600082825260208201905092915050565b6000610cb382610b10565b610cbd8185610c97565b9350610ccd818560208601610b2c565b610cd68161094a565b840191505092915050565b610cea81610b8f565b82525050565b600061010082019050610d06600083018b610c88565b610d13602083018a610c88565b8181036040830152610d258189610ca8565b90508181036060830152610d398188610ca8565b9050610d486080830187610ce1565b81810360a0830152610d5a8186610ca8565b9050610d6960c0830185610ce1565b610d7660e0830184610ce1565b9998505050505050505050565b610d8c81610aef565b8114610d9757600080fd5b50565b600081359050610da981610d83565b92915050565b610db881610b8f565b8114610dc357600080fd5b50565b600081359050610dd581610daf565b92915050565b600080600080600080600060e0888a031215610dfa57610df9610936565b5b600088013567ffffffffffffffff811115610e1857610e1761093b565b5b610e248a828b01610a58565b9750506020610e358a828b01610d9a565b965050604088013567ffffffffffffffff811115610e5657610e5561093b565b5b610e628a828b01610a58565b955050606088013567ffffffffffffffff811115610e8357610e8261093b565b5b610e8f8a828b01610a58565b9450506080610ea08a828b01610dc6565b93505060a088013567ffffffffffffffff811115610ec157610ec061093b565b5b610ecd8a828b01610a58565b92505060c0610ede8a828b01610dc6565b91505092959891949750929550565b600081905092915050565b6000610f0382610b10565b610f0d8185610eed565b9350610f1d818560208601610b2c565b80840191505092915050565b6000610f358284610ef8565b915081905092915050565b7f4e487b7100000000000000000000000000000000000000000000000000000000600052602260045260246000fd5b60006002820490506001821680610f8757607f821691505b602082108103610f9a57610f99610f40565b5b50919050565b7f4c616e6420616c72656164792072656769737465726564210000000000000000600082015250565b6000610fd6601883610c97565b9150610fe182610fa0565b602082019050919050565b6000602082019050818103600083015261100581610fc9565b9050919050565b7f457468657220726571756972656420666f72206c616e6420726567697374726160008201527f74696f6e21000000000000000000000000000000000000000000000000000000602082015250565b6000611068602583610c97565b91506110738261100c565b604082019050919050565b600060208201905081810360008301526110978161105b565b9050919050565b60008190508160005260206000209050919050565b60006020601f8301049050919050565b600082821b905092915050565b6000600883026111007fffffffffffffffffffffffffffffffffffffffffffffffffffffffffffffffff826110c3565b61110a86836110c3565b95508019841693508086168417925050509392505050565b6000819050919050565b600061114761114261113d84610b8f565b611122565b610b8f565b9050919050565b6000819050919050565b6111618361112c565b61117561116d8261114e565b8484546110d0565b825550505050565b600090565b61118a61117d565b611195818484611158565b505050565b5b818110156111b9576111ae600082611182565b60018101905061119b565b5050565b601f8211156111fe576111cf8161109e565b6111d8846110b3565b810160208510156111e7578190505b6111fb6111f3856110b3565b83018261119a565b50505b505050565b600082821c905092915050565b600061122160001984600802611203565b1980831691505092915050565b600061123a8383611210565b9150826002028217905092915050565b61125382610b10565b67ffffffffffffffff81111561126c5761126b61095b565b5b6112768254610f6f565b6112818282856111bd565b600060209050601f8311600181146112b457600084156112a2578287015190505b6112ac858261122e565b865550611314565b601f1984166112c28661109e565b60005b828110156112ea578489015182556001820191506020850194506020810190506112c5565b868310156113075784890151611303601f891682611210565b8355505b6001600288020188555050505b505050505050565b600060c08201905081810360008301526113368189610ca8565b9050818103602083015261134a8188610ca8565b90506113596040830187610ce1565b818103606083015261136b8186610ca8565b905061137a6080830185610ce1565b61138760a0830184610ce1565b97965050505050505056fea2646970667358221220f0b928cbc23fc06df5f6967d9871a607c8be9e5fb0ce4a7b49549d568aadbc5064736f6c634300081c0033",
    "linkReferences": {},
    "deployedLinkReferences": {}
}